:100000000C9438060C947F060C947F060C947F06A3
:100010000C947F060C947F060C947F060C947F064C
:100020000C947F060C947F060C94AE260C948027CB
:100030000C94171A0C947F060C947F060C947F0680
:100040000C947F060C947F060C947F060C947F061C
:100050000C947F060C948B1A0C947F060C947F06EC
:100060000C947F060C947F060C947F060C947F06FC
:100070000C947F060C947F060C947F060C947F06EC
:100080000C947F060C947F060C947F060C947F06DC
:100090000C947F060C947F060C947F060C947F06CC
:1000A0000C947F060C947F060C947F06F907FB07DF
:1000B0000608FD07FF0701080308050808080A08E5
:1000C0000C0817080E08100812081408160819085A
:1000D0006010601092109210D010F0106012601238
:1000E00032116012DF11DF115012601260125912CA
:1000F000EC11EC11EC11EC11EC11EC11EC11EC1118
:10010000EC11EC11EC11EC11EC11EC11EC11EC1107
:10011000FD110B12121219122312EF12EF1201131A
:100120000113F812011301130113EF12EF12FD1264
:1001300001130113FD12ED2714280629142806299E
:10014000602883280629D928E8282AA32CA2E000C1
:10015000E300E20002512C0028002A000000000009
:100160005000510052004F0065000000E1001C00EB
:100170001B000600190005004D004C004E00110048
:100180001000360037003300E50039000400160087
:10019000070009000A004A004B000B000D000E008A
:1001A0000F003400E60000002B0014001A000800C5
:1001B000150017002F0030001D0018000C00120061
:1001C00013003800000029001E001F00200021003D
:1001D00022002300240025002600270032003100E1
:1001E0002D002E00000000000000000000000000B4
:1001F00000000000000000000000000000000000FF
:1002000000000000000000000000000000000000EE
:1002100000000000000000000000000000000000DE
:1002200000000000000000000000000000000000CE
:1002300000000000000000000000000000000000BE
:1002400000000000000000000000000000000000AE
:10025000000000000000000000000000000000009E
:10026000000000000000000000000000000000008E
:10027000000000000000000000000000000000007E
:1002800000002C0028002A000000000000000000F0
:10029000000000000000000000000000000000005E
:1002A00000000000AC00AE00AB0000002A002800F7
:1002B0004C00000000000000E000E200E10000004F
:1002C0000000AA00A9004A00500051004F004D0054
:1002D000000000002B002302350000000000000099
:1002E000000000000000500152004F01000000001B
:1002F0000000005C3A003B003C003D003E003F0037
:10030000400041004200430044004500000000005E
:1003100044454255473A20656E61626C65642E0A19
:10032000000A002530313662003A2000253032586C
:10033000000A722F63203031323334353637383982
:100340004142434445460A000A0025303258200005
:100350006B6579626F6172645F7265706F72743A17
:1003600020000A0025303258006B6579626F617297
:10037000645F7365745F6C65643A2000290A002528
:1003800075002F002575005D2800256400200025DC
:100390006400200025640020002564007C002530D6
:1003A0003258006D6F7573656B6579205B62746E92
:1003B0007C782079207620685D287265702F6163D3
:1003C0006C293A205B006D6B5F776865656C5F74C4
:1003D000696D655F746F5F6D6178203D2025640AEB
:1003E000006D6B5F776865656C5F6D61785F7370DA
:1003F000656564203D2025640A006D6B5F74696D3E
:10040000655F746F5F6D6178203D2025640A006D23
:100410006B5F6D61785F7370656564203D20256456
:100420000A006D6B5F696E74657276616C203D20A9
:1004300025640A006D6B5F64656C6179203D202541
:10044000640A006D6B5F776865656C5F74696D65E4
:100450005F746F5F6D6178203D2025640A006D6BCD
:100460005F776865656C5F6D61785F737065656403
:10047000203D2025640A006D6B5F74696D655F74B3
:100480006F5F6D6178203D2025640A006D6B5F6DA4
:1004900061785F7370656564203D2025640A006D96
:1004A0006B5F696E74657276616C203D2025640A0D
:1004B000006D6B5F64656C6179203D2025640A00E6
:1004C0000A00257500363A20776865656C5F7469A7
:1004D0006D655F746F5F6D61783A20000A00257565
:1004E00000353A20776865656C5F6D61785F737081
:1004F0006565643A20000A00257500343A20746965
:100500006D655F746F5F6D61783A20000A00257534
:1005100000333A206D61785F73706565643A20003E
:100520000A00257500323A20696E74657276616C36
:10053000286D73293A20000A00257500313A20649D
:10054000656C6179282A31306D73293A20000A09D7
:100550002D2056616C756573202D0A004D3E004DAF
:1005600025643E20003F00736574206465666175F4
:100570006C740A00433E20007768657265206465EC
:100580006C74613A20637572736F723D25642C2020
:10059000776865656C3D25640A53656520687474E9
:1005A000703A2F2F656E2E77696B6970656469618B
:1005B0002E6F72672F77696B692F4D6F7573655F4B
:1005C0006B6579730A000A092D204D6F7573656B91
:1005D0006579202D0A4553432F713A097175697465
:1005E0000A313A0964656C6179282A31306D7329C2
:1005F0000A323A09696E74657276616C286D7329E6
:100600000A333A096D61785F73706565640A343A3C
:100610000974696D655F746F5F6D61780A353A09B9
:10062000776865656C5F6D61785F73706565640A96
:10063000363A09776865656C5F74696D655F746FDC
:100640005F6D61780A0A703A097072696E7420767B
:10065000616C7565730A643A097365742064656634
:1006600061756C74730A75703A092B310A646F777F
:100670006E3A092D310A706775703A092B31300ACC
:100680007067646F776E3A092D31300A0A737065AE
:100690006564203D2064656C7461202A206D61785A
:1006A0005F7370656564202A2028726570656174C7
:1006B000202F2074696D655F746F5F6D6178290A02
:1006C000003F004D3E2000433E20004C25640A00C0
:1006D00074696D65725F72656164333228293A20EE
:1006E0002530346C580A006B6579626F6172645F03
:1006F00069646C653A2025580A006B6579626F6100
:1007000072645F70726F746F636F6C3A2025580A61
:1007100000686F73745F6B6579626F6172645F6CA0
:1007200065647328293A2025580A000A092D2053A8
:100730007461747573202D0A004743433A20342EA8
:10074000392E32204156522D4C4942433A20322E06
:10075000302E30204156525F415243483A20617654
:1007600072350A004F5054494F4E533A204C55466B
:1007700041204D4F5553454B455920455854524102
:100780004B455920434F4E534F4C4520434F4D4D01
:10079000414E4420343039360A004255494C443ADF
:1007A0002022302E362E35382D33352D67353064E6
:1007B0006134322D646972747922202832333A34DC
:1007C000313A3334204665622031362032303139B7
:1007D000290A005649443A20307846454544285273
:1007E0006F6D696E526F6E696E2043616E64794BF6
:1007F00065797329205049443A20307836303630B4
:10080000284B6174616E61363029205645523A207A
:100810003078303030310A00444553433A20514D4E
:100820004B206B6579626F617264206669726D77C7
:1008300061726520666F72204B6174616E61363043
:100840000A000A092D2056657273696F6E202D0A01
:10085000000A092D20436F6E736F6C65202D0A45C9
:1008600053432F713A09717569740A6D3A096D6FB6
:100870007573656B65790A000A092D204D616769FA
:1008800063202D0A443A094465627567204D6573FB
:100890007361676520546F67676C650A583A094D44
:1008A0006174726978204465627567204D6F646574
:1008B00020546F67676C65202D2053686F77206B1D
:1008C00065797072657373657320696E206D6174EC
:1008D00072697820677269640A4B3A094B657962DC
:1008E0006F61726420446562756720546F67676C3E
:1008F00065202D2053686F77206B65797072657362
:1009000073207265706F72740A4D3A09446562759E
:1009100067204D6F75736520546F67676C650A5665
:100920003A0956657273696F6E0A533A09537461D6
:100930007475730A433A094163746976617465207A
:10094000436F6E736F6C65204D6F64650A46312D81
:100950004631303A0953776974636820746F204CCC
:100960006179657220302D392028463130203D20B4
:100970004C30290A302D393A09537769746368205D
:10098000746F204C6179657220302D390A455343CC
:100990003A0953776974636820746F204C617965F4
:1009A0007220302028616C7465726E617465206BF2
:1009B00065792031290A47524156453A09537769EA
:1009C00074636820746F204C617965722030202830
:1009D000616C7465726E617465206B657920322973
:1009E0000A50415553453A094A756D7020746F207D
:1009F000426F6F746C6F6164657220285265736515
:100A000074290A003F000A6D6F7573653A206F669E
:100A1000660A000A6D6F7573653A206F6E0A000AE8
:100A20006B6579626F6172643A206F66660A000ACC
:100A30006B6579626F6172643A206F6E0A000A6DAD
:100A400061747269783A206F66660A000A6D617493
:100A50007269783A206F6E0A000A64656275673AB7
:100A6000206F66660A000A64656275673A206F6ED9
:100A70000A000A0A4A756D70696E6720746F2062F9
:100A80006F6F746C6F616465722E2E2E2000433E72
:100A900020005B735D004B6579626F617264207347
:100AA000746172742E0A005B575D005B535D005BDE
:100AB000525D005B445D005B435D00040330000059
:100AC0000012034B006100740061006E006100368B
:100AD00000300000002A0352006F006D0069006EB4
:100AE0000052006F006E0069006E0020004300613C
:100AF000006E00640079004B00650079007300000F
:100B0000000403090409027400040100A0FA0904A6
:100B10000000010301010009211101000122400030
:100B20000705810308000A0904010001030102000E
:100B3000092111010001224D000705820308000A66
:100B40000904020001030000000921110100012233
:100B500036000705830308000A09040300020300A6
:100B60000000092111010001222200070584032051
:100B7000000107050403200001120110010000001C
:100B800008EDFE60600100010203010631FF0974F7
:100B9000A1010975150026FF00952075088102093D
:100BA00076150026FF00952075089102C005010901
:100BB00080A10185021601002603001A81002A8304
:100BC00000751095018100C0050C0901A101850384
:100BD000160100269C021A01002A9C02751095013C
:100BE0008100C005010902A1010901A1000509193F
:100BF00001290515002501950575018102950175ED
:100C00000381010501093009311581257F950275A0
:100C100008810609381581257F950175088106052B
:100C20000C0A38021581257F950175088106C0C020
:100C300005010906A101050719E029E715002501AD
:100C40009508750181029501750881010508190152
:100C50002905950575019102950175039101050717
:100C6000190029FF150026FF00950675088100C0B0
:100C700011241FBECFEFDAE0DEBFCDBF04B603FE06
:100C800027C08091350290913602A0913702B09131
:100C900038028730904BA740B04BD1F41092350208
:100CA00010923602109237021092380214BE84B7A6
:100CB000877F84BF0FB6F894A89580916000886103
:100CC00080936000109260000FBEE0E0F8E30995A9
:100CD00011E0A0E0B1E0E6E5F3E502C005900D9279
:100CE000A634B107D9F722E0A6E4B1E001C01D9215
:100CF000A533B207E1F70E94C9230C94A9290C94EB
:100D00000000FF93EF93E0914601F0914701309787
:100D100009F00995EF91FF910895FC0185918030CC
:100D200011F0EFDFFBCF0895FF27E0E230E247FF4D
:100D30000CC0419597FF09C0EDE2609570958095D4
:100D40009095611D711D811D911D27FF02C0219588
:100D500030E350E2AA27660F771F881F991FAA1F4A
:100D6000A41710F0A41B63955A95A9F7AA3008F0B0
:100D7000A95FA05DAF93F39561157105810591059C
:100D800041F7ED3211F4EF93F395F21718F43F9316
:100D9000F395FBCF8F91B5DFFA95E1F70895E991CF
:100DA000F9918591803021F0853219F0AADFF9CFD1
:100DB000089520E0E89455915532C1F3503311F471
:100DC000689455915A3348F4505390F3220F022EF1
:100DD000220F220F200D250FF4CF0EF421958991BB
:100DE0009991533619F3533729F1533559F1BC0111
:100DF00088279927E8945C3621F489919991689421
:100E00005591543639F446EF7EF077FF0DC08FEFE1
:100E10009FEF0AC055374AE039F0583540E121F0DC
:100E2000523642E009F00895FF93EF937DDFEF9192
:100E3000FF91B7CFFF93EF93FC0181918030B9F31D
:100E400060DFFBCFFF93EF9368DFF1CFDF93CF93AA
:100E5000CDB7DEB72596A3DFCF91DF9108950C942F
:100E600047070C9448070C9449070C944B076111F1
:100E70000BC0FC018281882321F085EE0E94AE0E1A
:100E800003C085EE0E94BD0F80E090E008950895B4
:100E9000089581E00895089581E008950E94DD128B
:100EA0002FEF84E39CE0215080409040E1F700C0A8
:100EB00000000C94B11AFF920F931F93CF93DF930E
:100EC0008C01FC01C081D18180918501811113C009
:100ED0008281882349F0CE010E940D18F82E682FD8
:100EE000CE010E94B21704C0CE010E94E117F82E75
:100EF000BE018F2D04C0CE010E940D18BE010E94BC
:100F0000DC08EC01B8010E943307882309F446C1CC
:100F1000B801CE010E943A0B882309F43FC1C531C4
:100F2000FCE5DF0739F50E94DE18282FF8018281E1
:100F30004091000150910101882379F02A7A91E0D3
:100F400009F490E090934801911102C069E201C058
:100F500065E3CA010E94B8190AC080914801811155
:100F600002C069E201C065E3CA010E94BA190E9489
:100F7000AB1814C1C6318CE5D80708F082C0C13067
:100F8000ECE5DE0779F4F8018281882309F406C1D3
:100F90008091050281608093050280E193E00E94C8
:100FA0008D06FCC0C230FCE5DF0708F452C0F80132
:100FB0008281882309F455C00E946919811102C0F9
:100FC0000E944F190E947C1990E090932702809311
:100FD0002602FE01E350FC45E231F10530F4EA5A05
:100FE000FF4F809126020C9459298091260281603E
:100FF00027C0826025C0846023C0806121C08062D8
:101000001FC080641DC080681BC08460886018C0D9
:101010008E7F16C08D7F14C08B7F12C08F7E10C054
:101020008F7D0EC08F7B0CC08F770AC08B7F877F30
:1010300007C087FB222720F991E0922790FB87F9D0
:1010400080932602809126020E9480190E94DD1260
:10105000A5C0C115DC4569F081E080934D01809306
:101060004E01C801DF91CF911F910F91FF900C9419
:101070004C07F8018281882309F490C00E944E0732
:101080008DC0C63DECE5DE0759F5F8018281882365
:1010900061F010924E010E94491A90934C01809386
:1010A0004B0180E20E941C1079C080914E01882380
:1010B00021F080E20E94231071C080914B01909139
:1010C0004C010E94611A883C910598F780E20E94C9
:1010D000231088E20E94AE0E88E20E94BD0F5EC01F
:1010E000C73DFCE5DF0708F044C0C43D8CE5D807E8
:1010F00019F5F8018281882351F010924D010E9468
:10110000491A90934A018093490182E0CBCF8091A4
:101110004D0181110FC08091490190914A010E94B7
:10112000611A883C910530F486E20E94AE0E86E298
:101130000E94BD0F82E0BECFC53DDC4509F08CCFDB
:10114000F80182818111A5CF80914E018111B1CF2B
:1011500080914B0190914C010E94611A883C91054D
:1011600008F0A7CF87E20E94AE0E87E20E94BD0F73
:10117000A0CFC93DFCE5DF0731F4F8018281882367
:1011800069F080E009C0CA3DDC4509F065CFF8018F
:101190008281882319F082E00E94712480E0DF912F
:1011A000CF911F910F91FF9008950C942F070C94ED
:1011B00031070C94350708959FE0799FF0011124C1
:1011C0009BE4899FE00DF11D1124E60FF11DEE0F48
:1011D000FF1FE25BFE4F859194910895880F991F40
:1011E000FC01E65BFE4F859194910895CF93DF93C8
:1011F0000E94DC080E94990AEC01811520E5920703
:10120000F0F5811530E4930708F018C1883E910588
:1012100000F5803E910508F088C1883A910570F488
:10122000853A910508F09AC08130910509F47DC195
:1012300008F434C1049708F078C130C18D3B9105A2
:1012400008F497C0803C910508F428C1805C91099E
:10125000E7C08115904258F4C11581E0D80708F025
:1012600064C1C03FD10508F419C1D0655EC1C11584
:1012700090E3D90708F0D8C0CE019F70D1C0811586
:1012800025E5920708F043C0811534E5930708F07F
:10129000ECC0811542E5940708F5C11581E5D80732
:1012A00008F0CFC02C2F237081E090E002C0880F9F
:1012B000991F2A95E2F79C689E0174E03695279560
:1012C0007A95E1F72370922BCF70C695C69530E2E0
:1012D000C39FE0011124C82BD92B27C18695869581
:1012E0009E0123703327C115D34508F0AFC040E2FB
:1012F000849FC0011124C1E0D0E002C0CC0FDD1FEB
:101300002A95E2F78C2B9D2BEC01DC680EC1811530
:1013100029E5920778F4811538E5930708F0AAC00B
:101320008115964508F0BAC0CF71DD27DC2FCC2798
:10133000D062FBC0C1158AE5D80708F4A0C0CE0171
:1013400090568115904208F0A9C08D2F8F710E9490
:10135000160BDD27D0628F71D82BE7C0853A910537
:1013600009F49FC0863A910509F09EC0C2E8D0E416
:10137000DCC0883A910509F49AC0893A910509F4CC
:1013800099C08A3A910509F498C08B3A910509F4FD
:1013900097C08C3A910509F496C08B3B910509F4EE
:1013A00095C08C3B910509F494C08D3A910509F4E0
:1013B00093C0803B910509F492C08E3A910509F4DF
:1013C00091C08F3A910509F490C0813B910509F4D1
:1013D0008FC0823B910509F48EC0833B910509F4CF
:1013E0008DC0843B910509F48CC0853B910509F4BF
:1013F0008BC0863B910509F48AC0873B910509F4AF
:1014000089C0883B910509F488C0893B910509F49E
:1014100087C08A3B910509F486C0C0E0D4E485C04A
:101420000E94EE08EC0181C0CE019927D3FF03C0D2
:10143000EC01D86C7AC0EC01D06C77C0DF70D06A58
:1014400074C0DC2FCC27C16FD06A6FC040E2849F8C
:10145000C0011124C1E0D0E002C0CC0FDD1F2A95ED
:10146000E2F7C82BD92BDA6860C0D82FCC27C46F1D
:10147000D06A5BC0D82FCC27C06FD06A56C08C2FE3
:101480008F70806E90E0906A24E0D695C7952A957B
:10149000E1F7CF709C013C2BE90147C0C0E0D0E0F0
:1014A00044C0C1E8D0E441C0C3E8D0E43EC0C2EECD
:1014B000D4E43BC0C9EED4E438C0CAEED4E435C0AD
:1014C000C5EBD4E432C0C6EBD4E42FC0C3EBD4E404
:1014D0002CC0C4EBD4E429C0C7EBD4E426C0CCECC8
:1014E000D4E423C0CDECD4E420C0C3E8D5E41DC0CF
:1014F000CAE8D5E41AC0C2E9D5E417C0C4E9D5E406
:1015000014C0C1E2D6E411C0C3E2D6E40EC0C4E206
:10151000D6E40BC0C5E2D6E408C0C6E2D6E405C0F6
:10152000C7E2D6E402C0CAE2D6E4CE01DF91CF9191
:1015300008958238910549F1B0F48133910509F499
:1015400058C048F48932910509F44EC08A32910599
:1015500009F454C008958533910509F440C08933D6
:10156000910599F00895833E910529F138F4803E64
:10157000910591F0823E9105A1F00895863E910576
:10158000F9F0873E910531F108952091260220FD62
:101590003AC021FD38C008958091260280FD35C0F3
:1015A00032C08091260282FF32C08091260284FDE3
:1015B00030C083EE39C08091260282FD28C0F5CF6D
:1015C0008091260283FF27C08091260284FD21C0DE
:1015D00087EE2AC08091260283FD1DC0F5CF809141
:1015E000260285FD1AC01BC08091260285FD17C00A
:1015F00014C08091260286FD14C015C08091260279
:1016000086FD11C00EC080EE0FC089E30DC082EED2
:101610000BC080E009C086EE07C089E205C085E303
:1016200003C08AE201C081E390E008959091260210
:1016300092FF0DC0282F2871283019F4877F84600D
:1016400006C0282F2471243011F48B7F886093FF0B
:101650000DC0282F2871283119F4877E846106C0B7
:10166000282F2471243111F48B7E886194FD877EAC
:10167000089508950F931F93CF93FB0122812111A9
:1016800002C0C1E041C08C01C0915C01C11125C004
:1016900086319C45B1F70E94390B81E080935C0153
:1016A0000E94491A90935B0180935A0110924F0156
:1016B0001092510110925001109253011092520158
:1016C0001092550110925401109257011092560138
:1016D000109259011092580117C080915A019091AF
:1016E0005B010E94611A8C32914058F690914F0133
:1016F000E92FF0E0EE0FFF1FE05BFE4F1183008348
:101700009F5F90934F01C0E08C2FCF911F910F915D
:101710000895A3E1B1E041E050E02FE02A0F8D9160
:10172000E82FE295EF70F0E031A18F70BA0102C0AE
:10173000660F771F8A95E2F7CB01962F909593233A
:1017400091A392A1892B82A32A13E9CFA2E2B1E04F
:1017500041E050E025E02A0F8D91E82FE295EF70EF
:10176000F0E031A18F70BA0102C0660F771F8A9531
:10177000E2F7CB01962F9095932391A392A1892B09
:1017800082A32A13E9CFE7E6F1E0ADE5B1E01192DB
:1017900011921D921D9271E0E137F707C1F70C9489
:1017A000D5082F923F924F925F926F927F928F92C5
:1017B0009F92AF92BF92CF92DF92EF92FF920F93E0
:1017C0001F93CF93DF9300D000D0CDB7DEB783E176
:1017D000E82E81E0F82E1A821982CC24C394D12CF1
:1017E00022242394D7018D917D01E82FE295EF709B
:1017F000F0E091A18F70560101C0AA0C8A95EAF71A
:10180000892F8A2981A382A15A2C5094852182A3F1
:10181000B0EABA95F1F7A601098002C0440F551F3E
:101820000A94E2F73A016094709462E271E00DE587
:1018300011E01C830B83312C8B809C80D4018D9113
:101840009C91DB014D90BD01242D22952F7030E03D
:10185000D90190962C9130E0B42DBF7002C035951F
:101860002795BA95E2F720FD05C09C01242B352B66
:10187000D40105C09C0126213721AB81BC812D9369
:101880003C932B813C812E5F3F4F3C832B83D401C3
:101890002D913C918217930711F0332433942B81BF
:1018A0003C812756314041F681A1582251A282A1A4
:1018B000A82AA2A2332041F0209271010E94491A65
:1018C000909373018093720129813A812F5F3F4F7A
:1018D0003A8329832F30310509F084CF809171013B
:1018E0008823B1F080917201909173010E94611A76
:1018F000069770F0E7E6F1E0D8018D919D918D019A
:1019000081939193B1E007361B07B1F710927101F3
:101910000E94D70881E00F900F900F900F90DF91F9
:10192000CF911F910F91FF90EF90DF90CF90BF90DC
:10193000AF909F908F907F906F905F904F903F906F
:101940002F900895E82FF0E0EE0FFF1FE959FE4FAA
:10195000808191810895CF92DF92EF92FF920F9351
:101960001F93CF93DF9381E393E00E948D0687E678
:10197000E82E81E0F82EC0E0D0E09CE2C92E93E092
:10198000D92E03E213E0DF93CF93DF92CF920E9430
:10199000260789E293E00E948D06F70181919191DB
:1019A0007F010E9435199F938F931F930F930E947D
:1019B000260781E293E00E948D0621968DB79EB79F
:1019C00008960FB6F8949EBF0FBE8DBFC530D105E7
:1019D000D1F6DF91CF911F910F91FF90EF90DF90A3
:1019E000CF90089590937901809378010895E091C4
:1019F0007801F0917901309721F00190F081E02D8C
:101A0000099480E00895EF92FF920F931F93CF9374
:101A1000DF93E0917801F09179013097B1F18C0179
:101A20000280F381E02D09958091050282FF2DC08F
:101A300080FF04C080E593E00E948D06E80118E075
:101A40008AE4E82E83E0F82E8091050280FF0BC027
:101A500088811F928F93FF92EF920E9426070F902A
:101A60000F900F900F90115021961111EDCF809192
:101A7000050280FF0AC088E493E0DF91CF911F91B7
:101A80000F91FF90EF900C948D06DF91CF911F91F5
:101A90000F91FF90EF900895E0917801F091790116
:101AA000309721F00480F581E02D0994089520916C
:101AB0007601309177018217930771F09093770147
:101AC00080937601E0917801F0917901309721F0CF
:101AD0000680F781E02D09940895209174013091DA
:101AE00075018217930771F09093750180937401CB
:101AF000E0917801F0917901309721F00084F1852F
:101B0000E02D0994089508950C94830D81E00895C3
:101B10000E94401A85B7806885BF85B7806885BFF9
:101B20000E94890B0C94D51ACF93C82F809105027F
:101B300082FF1EC080FF04C089E693E00E948D06EC
:101B40008091050280FF0CC01F92CF9384E693E042
:101B50009F938F930E9426070F900F900F900F90E6
:101B60008091050280FF04C082E693E00E948D060A
:101B70008C2FCF910C94D9084F925F927F928F92C5
:101B80009F92AF92BF92CF92DF92EF92FF920F930C
:101B90001F93CF93DF93CDB7DEB72A970FB6F89494
:101BA000DEBF0FBECDBF0E94D10B0E94860D8111FA
:101BB00011C08FEF89838A831B820E94491A81603A
:101BC000782F9D838C8349815A816B818D810E94FE
:101BD0007A0E57C09BE7C92E91E0D92E00E010E0A5
:101BE000AA24A394B12C702E802F0E94A20C4C0129
:101BF000F601419051906F01482659264114510435
:101C000031F40F5F1F4F0530110569F7D2CF809176
:101C1000050281FD0E94AB0C20E030E07501022E30
:101C200002C0EE0CFF1C0A94E2F7C7018421952143
:101C3000892B09F12E837F828E209F2091E08928B5
:101C400009F490E098870E94491A8160782F9A875A
:101C500089874E815F8168858A850E947A0E000F90
:101C6000111FF801E558FE4F80819181E826F92681
:101C7000F182E08206C02F5F3F4F2F30310571F6B1
:101C8000C0CF0E94EA1C10917A010E94F70C18172D
:101C9000D9F00E94F70C80937A012A960FB6F89437
:101CA000DEBF0FBECDBFDF91CF911F910F91FF908F
:101CB000EF90DF90CF90BF90AF909F908F907F90EC
:101CC0005F904F900C94940D2A960FB6F894DEBF57
:101CD0000FBECDBFDF91CF911F910F91FF90EF907D
:101CE000DF90CF90BF90AF909F908F907F905F904C
:101CF0004F900895CF93DF93CDB7DEB72B970FB6F4
:101D0000F894DEBF0FBECDBF4F83588769877A87AF
:101D10008B87DE01119686E0FD0111928A95E9F725
:101D200085E0FE01379601900D928A95E1F7498191
:101D30005A816B817C818D819E810E9484152B96B6
:101D40000FB6F894DEBF0FBECDBFDF91CF910895DF
:101D5000FC01808191810E944C180895CF93DF93FC
:101D60001F92CDB7DEB7882309F403C1682F8238EC
:101D7000C1F40E94F70C81FDFCC069E38091000171
:101D8000909101010E94B8190E94AB182FEF81EECB
:101D900094E0215080409040E1F700C0000069E3EA
:101DA00019C0833811F50E94F70C80FDE2C063E58D
:101DB00080910001909101010E94B8190E94AB1816
:101DC0002FEF81EE94E0215080409040E1F700C079
:101DD000000063E580910001909101010E94BA1911
:101DE0000F90DF91CF910C94AB188438C1F40E940E
:101DF000F70C82FDBEC067E4809100019091010163
:101E00000E94B8190E94AB182FEF81EE94E0215088
:101E100080409040E1F700C0000067E4DBCF8CEF2A
:101E2000860F813A70F4862F69830E94172069819A
:101E300081119FC080910001909101010E94B81909
:101E4000CFCF80E2860F883048F4677081E001C010
:101E5000880F6A95EAF70E94E118C2CF8BE5860FDA
:101E6000833088F4653A29F0663A31F083E890E0EF
:101E700005C081E890E002C082E890E00F90DF9119
:101E8000CF910C94570D88E5860F853108F071C00D
:101E9000683A61F1693A69F16A3A71F16B3A79F13C
:101EA0006C3A81F16B3B89F16C3B91F16D3A99F1A0
:101EB000603BA1F16E3AA9F16F3AB1F1613BB9F122
:101EC000623BC1F1633BC9F1643BD1F1653BD9F1A0
:101ED000663BE1F1673BE9F1683BF1F1693BF9F100
:101EE0006A3B09F43FC080E090E03EC082EE90E0A3
:101EF0003BC089EE90E038C08AEE90E035C085EBBB
:101F000090E032C086EB90E02FC083EB90E02CC0D5
:101F100084EB90E029C087EB90E026C08CEC90E049
:101F200023C08DEC90E020C083E891E01DC08AE8DA
:101F300091E01AC082E991E017C084E991E014C0F1
:101F400081E292E011C083E292E00EC084E292E06E
:101F50000BC085E292E008C086E292E005C087E20D
:101F600092E002C08AE292E00F90DF91CF910C9450
:101F70006D0D0F90DF91CF910895882309F45BC018
:101F8000682F823879F40E94F70C81FF54C069E30E
:101F900080910001909101010E94B8190E94AB1834
:101FA00069E310C08338B1F40E94F70C80FF43C08E
:101FB00063E580910001909101010E94B8190E948F
:101FC000AB1863E580910001909101010E94BA195C
:101FD0000C94AB18843879F40E94F70C82FF2BC064
:101FE00067E480910001909101010E94B8190E945C
:101FF000AB1867E4E7CF8CEF860F813A18F380E2E5
:10200000860F883048F4677081E001C0880F6A95B8
:10201000EAF70E94E718DCCF8BE5860F833020F4C7
:1020200080E090E00C94570D685A653120F480E010
:1020300090E00C946D0D0895882321F00E94E11822
:102040000C94AB180895882321F00E94E7180C9493
:10205000AB1808954F925F926F927F92BF92CF928A
:10206000DF92EF92FF920F931F93CF93DF937C0148
:10207000D62FC72FFC01058102950F701281111117
:102080000E94FE180E94A418882379F0112369F099
:1020900080E28D0F883048F082E00E948D180E9407
:1020A000A41891E0B82EB92601C0B12CCC2EC29450
:1020B0008FE0C822D12CF601E859FF4F0C94592922
:1020C0008C2F807FCF70882311F0C295C07F1123A1
:1020D00099F0CC2309F4CFC180E28D0F883010F045
:1020E000D11104C08C2F0E94E11803C08C2F0E94D4
:1020F000F1180E94AB18BFC18D2F0E94BD0FCC23D9
:1021000009F4DEC180E28D0F883010F0D11104C0D7
:102110008C2F0E94E71803C08C2F0E94F7180E9492
:10212000AB18CEC18C2F807FCF70803211F0C2955A
:10213000C07FDD2319F0D130C9F022C0112371F026
:10214000002341F0013031F40E9417198C2B0E94BA
:102150001119B6C10E9417198C2B46C1002319F022
:10216000013009F4ADC10E94141918C0112321F0E7
:10217000063008F0A5C10EC0053008F0A1C10EC0A0
:10218000112351F0002331F0F701858180FF73C1E5
:102190008F7085838C2F28C101117EC18C2F2AC19D
:1021A0008C2F86958695837090E0009719F00197A3
:1021B00061F086C1112321F08D2F9C2F937002C0F6
:1021C00080E090E00E94570D8BC1112321F08D2FEC
:1021D0009C2F937002C080E090E00E946D0D80C142
:1021E0001123F9F0D53F51F0D63F71F0D43FA9F457
:1021F000809120029091210281600BC08091200289
:1022000090912102826005C080912002909121026C
:10221000846090932102809320028D2F0E94701B76
:102220001EC0D53F51F0D63F71F0D43FA9F4809144
:102230002002909121028E7F0BC08091200290910C
:1022400021028D7F05C080912002909121028B7F19
:1022500090932102809320028D2F0E94D81B0E9410
:102260005D1C3EC18C2F837009F050C0111134C128
:102270008D2F829586958770880F880F9D2F9F7070
:10228000492E512C612C712C082E04C0440C551C75
:10229000661C771C0A94D2F7D4FF14C00FE010E03C
:1022A00020E030E0B901A80104C0440F551F661FAB
:1022B000771F8A95D2F7CB01BA016095709580950A
:1022C000909503C060E070E0CB01C695C695C370E1
:1022D000D0E0C230D10561F0C330D10581F064296E
:1022E000752986299729219771F00E94C716F4C095
:1022F00064297529862997290E94D916EDC00E9464
:10230000C716C301B2010E94B516E6C0112319F029
:102310008C2F817001C08695882309F4DDC08D2F34
:10232000829586958770880F880F9D2F9F70492E04
:10233000512C612C712C082E04C0440C551C661CB9
:10234000771C0A94D2F7D4FF14C00FE010E020E00D
:1023500030E0B901A80104C0440F551F661F771F64
:102360008A95D2F7CB01BA016095709580959095CA
:1023700003C060E070E0CB01C695C695C3704C2FDA
:1023800050E04230510569F04330510589F064292D
:102390007529862997294130510571F00E948D17C2
:1023A0009BC064297529862997290E949F1794C08C
:1023B0000E948D17C301B2010E947B178DC08D2F23
:1023C00090E0FC01E05EF109E531F10508F04FC055
:1023D000E858FF4F0C945929DF708C2F8F7111230F
:1023E00031F00E9414178D2F0E941C1069C00E94AA
:1023F00035178D2F0E94231063C0112341F0053043
:1024000008F05EC08C2F8F710E945A1759C0063099
:1024100008F056C0F7CF112339F08C2F8F710E942E
:1024200014174EC01123C9F38C2F8F710E943517DA
:1024300047C0112329F08C2F8F710E94FF1640C0D6
:102440000E94FA163DC0112349F0CF718C2F0E94D3
:10245000141763E08C2F0E94841832C081E00E9420
:102460008D18023068F182E00E948D1829C0112376
:1024700031F0002391F28D2F0E94AE0E21C0002377
:1024800099F2D93349F45FEF67EE73E05150604041
:102490007040E1F700C000008D2F0E94BD0F10C0FA
:1024A0004C2F4F706D2FC7010E9437070E942816CE
:1024B00017C04C2F4F706D2FC7010E94DB0810C052
:1024C00088E0C816D10441F05CF0EAE0CE1AD108E9
:1024D000F2E0CF16D10420F40E94F70C0E94D90834
:1024E000BB20F1F00E94801880FD1AC0F701128213
:1024F0000E947A180E941417C7010E949E120E941F
:102500007A18DF91CF911F910F91FF90EF90DF909C
:10251000CF90BF907F906F905F904F900C94351745
:10252000DF91CF911F910F91FF90EF90DF90CF90AF
:10253000BF907F906F905F904F9008950F931F937F
:10254000CF93DF93EC01888199812B813C81232BF0
:10255000B9F09F3F11F48F3F99F0CE010E945B07C5
:10256000882371F0688179818A810E9457188C01D3
:102570000E94B1170E94B216B801CE010E942A1023
:10258000DF91CF911F910F9108950E94FE180E9434
:102590000E1980910001909101010E94BC190E94C6
:1025A000AB180E94851D0E945D1C80E090E00E9497
:1025B000570D80E090E00C946D0D0E94EE180C9485
:1025C000C5120E944C18E92FE295EF70F0E03297A7
:1025D000EE30F105B0F4E357FF4F0C945929803FDA
:1025E00091F018F4803E68F40EC0843F51F40BC0A3
:1025F000803E48F0813F29F406C093FB882780F98C
:10260000089580E0089581E00895CF93DF9300D08E
:1026100000D01F92CDB7DEB70F900F900F900F90A4
:102620000F90DF91CF910895CF93DF9300D000D02A
:1026300000D0CDB7DEB726960FB6F894DEBF0FBE3A
:10264000CDBFDF91CF9108951F93CF93DF93C091BA
:10265000860116E080918701C81799F0D0E01C9F91
:10266000F0011D9FF00D1124E857FE4F408151816C
:1026700062817381848195810E9414132196C770B1
:10268000E9CFDF91CF911F9108954091B80150910A
:10269000B9016091BA017091BB018091BC01909128
:1026A000BD010C9414138091BD0182958F7009F0C7
:1026B00054C08091BA01882309F44FC080918601EB
:1026C000A09187016091B8017091B9014091BB015F
:1026D0005091BC01B6E08A1709F43FC090E0411563
:1026E0005105C1F17F3F11F46F3FA1F1B89FF00197
:1026F000B99FF00D1124E857FE4F218172132AC0B3
:102700002081621327C02281211124C023813481BA
:102710002417350710F421503109241B350B283CB0
:102720003105C0F42091BD012F7020612093BD01BF
:1027300026E0289FF001299FF00D1124E357FE4F5A
:1027400080818F708061808388EB91E00E949E126F
:102750000C94241301968770BECF0895CF92DF9218
:10276000EF92FF920F931F93CF93DF93CDB7DEB716
:1027700062970FB6F894DEBF0FBECDBF8C0185E027
:10278000F801DE011D9601900D928A95E1F7D801BE
:102790004C9111965C91119712966C911297139629
:1027A000CD90DC9014973091B8017091B90180916F
:1027B000BB019091BC01009709F46BC17F3F19F4F4
:1027C0003F3F09F466C1E090BA01EE2009F4C0C0B1
:1027D0002091BD01C816D90628F0F601E81BF90BB7
:1027E000CF0104C0809590958C0D9D1DFF24F3941E
:1027F000883C910578F0F12C207F09F0C6C07C2D33
:10280000D98AC88A89890E94051388EB91E00E94C1
:102810009E12B1C0822F807F09F046C0751314C08C
:10282000341312C0611110C02F7020612093BD01BC
:102830000E94451388EB91E00E949E128091BD0199
:10284000D80115968C932EC0CD2819F15F3F11F455
:102850004F3FF9F0F62E61111CC080918601209146
:10286000870136E0821709F45AC090E0389FF001E2
:10287000399FF00D1124E857FE4F7181571306C0A0
:102880007081471303C07281711103C00196877074
:10289000E9CFF62E662309F427C18091BD0181603E
:1028A0008093BD01F12C20C1751308C0341306C0FC
:1028B000611104C08091BD01D801C3C04D875E87FE
:1028C0008D859E856A8B0E94E1126A898823E1F1D9
:1028D0006623D1F12091BD01822F82958F7090E007
:1028E000029774F08091B8019091B90198878F8315
:1028F0001986DB86CA862C87CE0107960E949E1217
:1029000086E0F801A8EBB1E001900D928A95E1F71D
:102910000E9453130E944513FF24F394E5C04D8792
:102920005E878D859E850E944C18292F22952F70D9
:1029300030E0223031050CF0CBC09F7009F0C5C0EB
:10294000805E883008F4D0C0C8010E949E12E4CF97
:10295000C816D90608F453C0F601E81BF90BCF01DD
:10296000883C910508F450C0F12C7C2DD98AC88A86
:1029700089890E940513E8EBF1E086E0DF011D92F2
:102980008A95E9F70E944513AFC0751314C034133C
:1029900012C0611110C08091BD01F8018583C8018A
:1029A0000E949E1286E0E8EBF1E0DF011D928A951D
:1029B000E9F7FE2C99C04D875E878D859E856A8BD1
:1029C0000E94E1126A89882309F4BECF662309F4C4
:1029D000BBCF2091BD01822F82958F7090E002972E
:1029E0000CF48ECF8091B8019091B9019A838983BC
:1029F0001B82DD82CC822E83CE0101967FCF809513
:102A000090958C0D9D1DACCFF62E662309F49CCFBE
:102A100075132EC034132CC02091BD0120FD1FC0A2
:102A2000822F82958F70D9F0D80115962C93159727
:102A30008F3049F08F5F982F9295907F822F8F7003
:102A4000892B15968C93C8010E949E1286E0F8018E
:102A5000A8EBB1E001900D928A95E1F793CF86E063
:102A6000F801A8EBB1E001900D928A95E1F73CC026
:102A70004D875E878D859E850E94E112811140CF32
:102A80008091BD0181608093BD01C8010E949E12AA
:102A90002BC0662309F458CF4D875E878D859E85B0
:102AA0000E94E112F82E882309F44ECF86E0F80147
:102AB000A8EBB1E001900D928A95E1F788EB91E0E7
:102AC0000E94A80E0E9453135DCF811139CF0CC014
:102AD000243031050CF038CF9F7009F431CFF80164
:102AE0009581907F09F02CCF8F2D62960FB6F894C8
:102AF000DEBF0FBECDBFDF91CF911F910F91FF9031
:102B0000EF90DF90CF9008951F93CF93DF93CDB7D1
:102B1000DEB72C970FB6F894DEBF0FBECDBF4F8344
:102B2000588769877A878B879C87CE0107960E9492
:102B3000AE13882369F08F8198852A853B85232BE6
:102B4000F1F19F3F09F063C08F3F09F060C037C0CB
:102B500086E0FE013796DE01119601900D928A956E
:102B6000E1F76F817885EA85FB85309741F17F3FFA
:102B700011F46F3F21F12091870130E0C9010196E6
:102B8000877099274091860150E08417950709F4D2
:102B900047C069837A83FD83EC8396E0929FD001DE
:102BA000939FB00D1124A857BE4FFE01319601909E
:102BB0000D929A95E1F7809387010E94241316E005
:102BC00080918601909187018917C1F1189FC001FA
:102BD000112488579E4F0E94AE13882379F1E0910B
:102BE00086011E9FF0011124E857FE4F408151815C
:102BF00062817381848195810E9414138091860182
:102C000090E001968770992780938601D9CF4F81F4
:102C1000588569857A858B859C850E941413CFCF52
:102C20000E94DD121092870110928601E8EBF1E01C
:102C300086E0DF011D928A95E9F7C1CF2C960FB689
:102C4000F894DEBF0FBECDBFDF91CF911F910895E5
:102C5000EF92FF920F931F93CF93DF938C01892BF9
:102C600009F46CC0F12CEE24E394E8012196F801FC
:102C70008491843740F4843008F051C0813081F071
:102C8000823019F15BC0853709F444C0A8F19CE794
:102C9000980F903708F052C08F770E94BD0F41C047
:102CA0000E5F1F4FFE01C49180E28C0F883048F404
:102CB000C7708E2D01C0880FCA95EAF70E940119CE
:102CC00014C08C2F0E94AE0E2DC00E5F1F4FFE0150
:102CD000C49180E28C0F883058F4C7708E2D01C0EB
:102CE000880FCA95EAF70E9407190E94AB181AC00C
:102CF0008C2F0E94BD0F16C00E5F1F4FFE01C491A6
:102D0000CC2381F08FE99FE00197F1F700C000002C
:102D1000C150F6CF0E5F1F4FFE01F49003C00E941A
:102D2000AE0E8E018F2D882309F49FCFEFE9FFE0CF
:102D30003197F1F700C000008150F5CFDF91CF91BE
:102D40001F910F91FF90EF90089508950E94A5168E
:102D50006093F4017093F5018093F6019093F7016D
:102D60000C94C51208950C94A6160F931F9300910E
:102D7000F4011091F5012091F6013091F701602BDB
:102D8000712B822B932B1F910F910C94A6160F93EE
:102D90001F930091F4011091F5012091F6013091FB
:102DA000F70160237123822393231F910F910C94C9
:102DB000A6160F931F930091F4011091F501209135
:102DC000F6013091F70160277127822793271F9121
:102DD0000F910C94A61608950C94EB160E94EC1615
:102DE0006093F0017093F1018093F2019093F301ED
:102DF0000C94C51260E070E0CB010C94EE160F93BA
:102E00001F9341E050E060E070E08A019B0104C044
:102E1000000F111F221F331F8A95D2F7C901B80175
:102E20001F910F910C94EE160F931F9341E050E009
:102E300060E070E004C0440F551F661F771F8A953D
:102E4000D2F78091F0019091F101A091F201B0913F
:102E5000F3018A019B01082B192B2A2B3B2BC9015B
:102E6000B8011F910F910C94EE160F931F9341E040
:102E700050E060E070E004C0440F551F661F771FEC
:102E80008A95D2F740955095609570958091F001A4
:102E90009091F101A091F201B091F3018A019B019F
:102EA000082319232A233B23C901B8011F910F913D
:102EB0000C94EE160F931F9341E050E060E070E039
:102EC00004C0440F551F661F771F8A95D2F7809163
:102ED000F0019091F101A091F201B091F3018A010A
:102EE0009B01082719272A273B27C901B8011F91F1
:102EF0000F910C94EE160F931F930091F001109117
:102F0000F1012091F2013091F301602B712B822BA2
:102F1000932B1F910F910C94EE160F931F9300911A
:102F2000F0011091F1012091F2013091F301602341
:102F30007123822393231F910F910C94EE160F930C
:102F40001F930091F0011091F1012091F201309155
:102F5000F30160277127822793271F910F910C940B
:102F6000EE1608952FE0929F800D1124A82FA695AC
:102F7000A695A695877051E001C0550F8A95EAF78E
:102F800085E0A89FD001112420E030E070E0F90135
:102F9000EA0FFB1FE254FE4F4081CB01022E02C01C
:102FA000969587950A94E2F78170992781958427F1
:102FB0008523842780832F5F3F4F2530310539F7E4
:102FC00008952FE0929F800D1124682F66956695D5
:102FD0006695982F977085E0689FB001112440E0B6
:102FE00050E080E0FA01E60FF71FE254FE4F208127
:102FF00030E0092E02C0369527950A94E2F7217039
:103000003327042E01C0220F0A94EAF7822B4F5F68
:103010005F4F4530510531F70895CF92DF92EF921F
:10302000FF920F931F93CF93DF938C01C090F40115
:10303000D090F501E090F601F090F7018091F00159
:103040009091F101A091F201B091F301C82AD92A1F
:10305000EA2AFB2ACFE1D0E0D701C6010C2E04C03A
:10306000B695A795979587950A94D2F780FF06C0E5
:10307000B8018C2F0E94F608019721F4219760F780
:1030800080E001C08C2FDF91CF911F910F91FF90B5
:10309000EF90DF90CF900895CF93DF93EC010E94E3
:1030A0000D18BE010E94F608DF91CF9108951F937D
:1030B000CF93DF93EB0190918501992321F0CB0110
:1030C0000E944C1813C0882349F0CB010E940D18B0
:1030D000182F682FCE010E94B21704C0CB010E94A6
:1030E000E117182FBE01812F0E94F608DF91CF91C2
:1030F0001F9108958091F80185958595859508958E
:103100008091F8018770089598E0899F90011124BB
:10311000262B2093F8010C9414172091F801809528
:1031200082238093F801982F977069F430E0482F3C
:10313000082E000C550B2417350729F08595859529
:1031400085950C94351708959091F801977081E05A
:1031500009F480E00895E0910001F091010180916F
:1031600004028083E0910001F0910101908180913F
:103170000302892B8083E0910001F091010190818D
:1031800080910202892B80838091F901882381F04C
:10319000E0910001F09101019081892B8083809161
:1031A0000001909101010E94851981111092F9018D
:1031B00080910001909101010C94030D8091040213
:1031C000089590910402892B8093040208958095BC
:1031D00090910402892380930402089510920402BE
:1031E000089590910302892B80930302089580959E
:1031F00090910302892380930302089510920302A1
:10320000089590910202892B80930202089580957F
:103210009091020289238093020208951092020283
:1032200008958093F90108951092F901089580910D
:10323000F90108959093470180934601089582957E
:10324000982F9C7C392F36953695282F237344E090
:10325000249FC0011124932F982B292F2A7A269579
:10326000892F8575880F822B08951F93CF93DF9345
:103270001F92CDB7DEB799830E941F19182F99812D
:10328000892F0E941F19212F30E0322F2227A901F8
:10329000482BCA010F90DF91CF911F9108956DEED9
:1032A0007EEF80E090E00E94932960E082E090E071
:1032B0000E94812960E083E090E00E94812960E023
:1032C00084E090E00E94812960E085E090E00C9429
:1032D000812980E090E00E947B2921E08D3E9E4F75
:1032E00009F020E0822F089582E090E00C94732989
:1032F00083E090E00C94732984E090E00C947329AF
:10330000682F84E090E00C948129FC0131969C01A7
:10331000285F3F4F80E0919191118F5FE217F30793
:10332000D1F708959C01FC0132969FEF80E0419116
:10333000461789F09F3F19F4411101C0982F8F5F04
:103340008630A9F79F3F39F0F901E90FF11D97FD8C
:10335000FA95628308950895FC01329608962081BB
:10336000261301C010823196E817F907C1F70895B6
:103370000C9492190C94AC19FC0131960896119298
:10338000E817F907E1F7089508950C94C41980919E
:103390002C02843049F11092060220E488E190E08A
:1033A0000FB6F894A895809360000FBE209360003C
:1033B00080E00E94D9080E94C51983B7817F84608C
:1033C00083BF83B7816083BF7894889583B78E7FEE
:1033D00083BF0FB6F894A8958091600088618093B0
:1033E0006000109260000FBE089508950895CF9375
:1033F0000E94F5190E94D10B0E94F619C0E08C2F93
:103400000E94A20C892B29F4CF5FC530C1F780E060
:1034100001C081E0CF91089508950C940C1A0E9488
:10342000DD120E94F70C0E94D9080C940D1A1F920D
:103430000F920FB60F9211248F939F93AF93BF9368
:1034400080910602811113C0809122029091230283
:10345000A0912402B09125024196A11DB11D809337
:10346000220290932302A0932402B0932502BF91DD
:10347000AF919F918F910F900FBE0F901F90189555
:1034800082E084BD93E095BD9AEF97BD80936E0076
:1034900008952FB7F8948091220290912302A09171
:1034A0002402B09125022FBF08952FB7F8946091A0
:1034B00022027091230280912402909125022FBF55
:1034C0000895CF92DF92EF92FF920F931F932FB741
:1034D000F89440912202509123026091240270914D
:1034E00025022FBF6A017B01EE24FF248C0120E01E
:1034F00030E0C016D106E206F30610F4415051093F
:103500009A01281B390BC9011F910F91FF90EF9071
:10351000DF90CF90089578941F920F920FB60F927C
:1035200011248F939F93AF93BF9380912202909128
:103530002302A0912402B09125020196A11DB11D84
:103540008093220290932302A0932402B093250239
:10355000BF91AF919F918F910F900FBE0F901F90D1
:10356000189581E08093E00080E28093D80010926B
:10357000C9008FE19EE40197F1F700C0000087E0E9
:1035800090EBDC018093350290933602A0933702D2
:10359000B09338029CE088E10FB6F894A895809328
:1035A00060000FBE90936000FFCF0E9469198111E7
:1035B00002C00E944F190E947419809305020E9454
:1035C0007C1990E090932702809326020E9478193C
:1035D000682F70E080E090E00C94B31680910902AF
:1035E00080FF0BC06091050185E0689FB001112448
:1035F00075956795759567952BC081FF09C060919A
:10360000050185E0689FB00111247595679520C07C
:1036100082FF07C06091050185E0689FB001112419
:1036200017C090910A029923D1F060910401961776
:1036300088F72091050185E0289F90011124929F31
:10364000A001939F500D112470E0CA010E944529EA
:103650006038710540F46115710539F002C065E00C
:1036600070E0862F08958FE7089581E00895809196
:10367000090280FF08C06091030170E075956795AD
:103680007595679521C081FF06C06091030170E0C8
:103690007595679519C082FF04C06091030170E0C1
:1036A00010C090910A029923C1F06091020196170F
:1036B000A0F780910301899FC001112470E00E944E
:1036C00045296038710528F46115710521F0862FB0
:1036D00008958FE7089581E0089561E070E0F4CFE8
:1036E000803F21F40E94EE1A819504C0813F29F4A5
:1036F0000E94EE1A80930D020895823F21F40E94E9
:10370000EE1A819504C0833F29F40E94EE1A80933B
:103710000C020895893F19F40E94371B05C08A3FA7
:1037200031F40E94371B819580930E0208958B3FE0
:1037300021F40E94371B819504C08C3F29F40E941C
:10374000371B80930F020895843F21F480910B0270
:10375000816017C0853F21F480910B02826011C007
:10376000863F21F480910B0284600BC0873F21F4D7
:1037700080910B02886005C0883F31F480910B0274
:10378000806180930B0208958D3F21F4809109029E
:1037900081600BC08E3F21F480910902826005C0D8
:1037A0008F3F29F480910902846080930902089573
:1037B000803F39F480910D0287FF6CC010920D029A
:1037C00069C0813F29F480910D021816BCF362C0D4
:1037D00090910C02823F29F497FF5CC010920C027A
:1037E00059C0833F19F41916CCF354C0893F41F4F2
:1037F00080910E0218160CF04DC010920E024AC0B5
:103800008A3F29F480910E0287FF44C0F6CF8B3F98
:1038100039F480910F0287FF3DC010920F023AC029
:103820008C3F29F480910F021816BCF333C0843FFB
:1038300021F480910B028E7F17C0853F21F4809187
:103840000B028D7F11C0863F21F480910B028B7F8C
:103850000BC0873F21F480910B02877F05C0883F12
:1038600031F480910B028F7E80930B0213C08D3F49
:1038700021F4809109028E7F0BC08E3F21F480914C
:1038800009028D7F05C08F3F29F4809109028B7F4B
:103890008093090280910C0281110EC080910D026B
:1038A00081110AC080910E02811106C080910F0221
:1038B000811102C010920A0208958091050283FFCF
:1038C0007EC083EA93E00E948D0680910B021F92D6
:1038D0008F938EE993E09F938F930E9426078CE944
:1038E00093E00E948D0680910C02282F082E000C78
:1038F000330B3F938F9389E993E09F938F930E94BB
:10390000260787E993E00E948D0680910D02282FFB
:10391000082E000C330B3F938F9384E993E09F9321
:103920008F930E94260782E993E00E948D06809182
:103930000E02282F082E000C330B3F938F938FE835
:1039400093E09F938F930E9426078DE893E00E9457
:103950008D0680910F02282F082E000C330B3F9309
:103960008F938AE893E09F938F930E94260787E8BE
:1039700093E00E948D0680910A021F928F9384E843
:1039800093E09F938F930E94260782E893E00E9422
:103990008D06809109021F928F938FE793E09F938A
:1039A0008F930E9426078CE793E00E948D068DB7C7
:1039B0009EB74C960FB6F8949EBF0FBE8DBF8BE09E
:1039C00092E00E944C0D0E94491A90930802809345
:1039D000070208951F93CF93DF9380910702909180
:1039E00008020E94611AAC0190910A02992321F009
:1039F0002091060130E006C0209107018AE0289F4F
:103A0000900111244217530708F47BC080910C02E7
:103A1000C0910D02D0910E0210910F02811107C0CA
:103A2000C1116BC0D11169C0111167C06AC09F3F3D
:103A300019F09F5F90930A02181624F40E94EE1A60
:103A400080930C0280910C0287FF05C00E94EE1A41
:103A5000819580930C021C1624F40E94EE1A809328
:103A60000D0280910D0287FF05C00E94EE1A81951C
:103A700080930D0230910C023323E1F020910D026E
:103A80002223C1F045EB3403C0011124892F990F83
:103A9000990B009709F481E080930C0235EB230326
:103AA000C0011124892F990F990B009709F481E027
:103AB00080930D021D1624F40E94371B80930E0282
:103AC00080910E0287FF05C00E94371B819580936D
:103AD0000E02111624F40E94371B80930F0280916E
:103AE0000F0287FF05C00E94371B819580930F024C
:103AF000DF91CF911F910C945D1C9F3F09F099CFEE
:103B0000A1CFDF91CF911F910895EBE0F2E085E026
:103B1000DF011D928A95E9F710920A0210920902BC
:103B2000089586EC95E00E948D061F9281E08F93A8
:103B30001F9285E08F9388E795E09F938F930E9473
:103B400026070F900F900F900F900F900F900895F1
:103B50008330E9F128F4813061F0823009F1089571
:103B6000853009F462C008F449C0863009F474C095
:103B7000089580910701262F30E0280F311D2F3F37
:103B8000310524F4680F6093070103C08FEF809321
:103B90000701809107011F928F9381EB94E072C01F
:103BA00080910601262F30E0280F311D2F3F31056F
:103BB00024F4680F6093060103C08FEF8093060121
:103BC000809106011F928F938FE994E05BC08091F2
:103BD0000501262F30E0280F311D2F3F310524F439
:103BE000680F6093050103C08FEF809305018091FA
:103BF00005011F928F938CE894E044C080910401EA
:103C0000262F30E0280F311D2F3F310524F4680F97
:103C10006093040103C08FEF80930401809104013D
:103C20001F928F9387E794E02DC080910301262F88
:103C300030E0280F311D2F3F310524F4680F6093C9
:103C4000030103C08FEF80930301809103011F9252
:103C50008F938EE594E016C080910201262F30E00C
:103C6000280F311D2F3F310524F4680F60930201A6
:103C700003C08FEF80930201809102011F928F9306
:103C800083E494E09F938F930E9426070F900F90F8
:103C90000F900F900895833081F128F4813059F00E
:103CA0008230D1F00895853009F449C0B8F18630EA
:103CB00009F456C0089580910701681720F4861B07
:103CC0008093070102C010920701809107011F92A3
:103CD0008F9384E394E054C080910601681720F428
:103CE000861B8093060102C0109206018091060196
:103CF0001F928F9382E294E043C080910501681780
:103D000020F4861B8093050102C01092050180916A
:103D100005011F928F938FE094E032C080910401DF
:103D2000681720F4861B8093040102C010920401DE
:103D3000809104011F928F938AEF93E021C08091BC
:103D40000301681720F4861B8093030102C01092C0
:103D50000301809103011F928F9381EE93E010C0C5
:103D600080910201681720F4861B8093020102C033
:103D700010920201809102011F928F9386EC93E0D2
:103D80009F938F930E9426070F900F900F900F9094
:103D90000895CF93C82F1F928F938BEC96E09F933B
:103DA0008F930E94260781E090E0A0E0B0E0BC0184
:103DB000CD0104C0660F771F881F991FCA95D2F7DF
:103DC0000E94B3160F900F900F900F90CF910C940C
:103DD000DD12CF93873288F58E3108F00BC18E301B
:103DE00009F489C0D8F4873009F461C08B3009F434
:103DF0004FC0863009F004C180910502817F8E7F1B
:103E00008093050281E598E00E948D068EE89AE095
:103E10000E948D0681E08093110247C0863109F42B
:103E2000B2C020F4803109F47CC0EAC0893109F4C1
:103E300093C08B3109F44BC0E3C0883349F150F48F
:103E4000893209F4D9C0853309F4D6C0873209F420
:103E5000D3C0D6C0833409F4CFC028F48A3308F421
:103E6000CFC08953CAC0883409F0CAC00E94DD128D
:103E700082E79AE00E948D062FEF83ED90E32150B8
:103E800080409040E1F700C000000E94B11A0DC0D0
:103E900088E798E043C089E59AE00E948D0680910A
:103EA0000502897F877F80930502C1E0AEC08091C3
:103EB0000502C82FC095C170C0FB80F98093050230
:103EC000CC2349F386E69AE00E948D069EC090912D
:103ED000050291FBCC27C0F981E0C827892FC0FBE0
:103EE00081F980930502CC2319F08CE49AE029C073
:103EF0008EE39AE013C09091050292FBCC27C0F9A3
:103F000081E0C827892FC0FB82F980930502CC236A
:103F100019F08FE29AE015C08FE19AE00E948D06B9
:103F2000C4CF9091050293FBCC27C0F981E0C8274C
:103F3000892FC0FB83F980930502CC2351F083E1E4
:103F40009AE00E948D0680910502816080930502AF
:103F50005CC086E09AE0E2CF82E498E00E948D06A1
:103F600088E198E00E948D0683ED97E00E948D061F
:103F70008AE997E00E948D0684E697E00E948D060C
:103F800089E397E0CBCF8BE297E00E948D060E94F9
:103F9000F70C1F928F9381E197E09F938F930E947C
:103FA0002607809112011F928F938AEF96E09F93CC
:103FB0008F930E94260780911E021F928F9387EE97
:103FC00096E09F938F930E9426070E94551A9F9315
:103FD0008F937F936F9380ED96E09F938F930E94D2
:103FE00026078DB79EB742960FB6F8949EBF0FBEB8
:103FF0008DBF5BCF8D5101C080E00E94C91E55CF9F
:1040000084E09AE00E948D06C0E08C2FCF91089545
:1040100080E0089580E008958E518A3030F4E82FD2
:10402000F0E0E95DFE4F8081089580E00895CF9330
:10403000C82F80911102813071F020F0823009F494
:104040004BC03FC1E0910001F091010180818232BB
:1040500009F039C107C0E0910001F09101018081B0
:10406000823261F48C2F0E940820811104C08C2FB1
:104070000E94E91E2FC081E090E02CC08C2F0E948E
:104080000A20811126C0C431E1F070F4CB3081F0F8
:10409000C031D1F40E94911D83EC96E00E948D0600
:1040A00082E08093110215C0C93259F0C83361F41F
:1040B00081E598E00E948D0687EC96E00E948D06CF
:1040C00008C01092110201C181EC96E00E948D0699
:1040D000FCC081E08170FBC0C43228F5CE3108F00D
:1040E000C1C0CB30A1F1D0F4C73009F0D0C08EE10F
:1040F0008093070182E3809306018AE080930501A3
:1041000084E18093040188E08093030188E2809336
:10411000020187E695E00E948D06BCC0C33149F1DB
:10412000C431C1F0B4C0CB3409F4A6C028F4C932FC
:1041300089F0C83361F0ABC0C13509F49BC0C2350A
:1041400009F496C0CE3409F0A2C06AE09BC00E9478
:10415000911DA0C080911002882319F010921002C6
:1041600099C084E795E00E948D0681E0809311025A
:10417000AEC08EE495E00E948D068CE395E00E942F
:104180008D06809107011F928F9389E395E09F939D
:104190008F930E94260787E395E00E948D0685E2B3
:1041A00095E00E948D06809106011F928F9382E216
:1041B00095E09F938F930E94260780E295E00E94EE
:1041C0008D0681E195E00E948D06809105011F9288
:1041D0008F938EE095E09F938F930E9426078CE04B
:1041E00095E00E948D068BEF94E00E948D068091F1
:1041F00004011F928F9388EF94E09F938F930E9406
:10420000260786EF94E00E948D0681EE94E00E94DE
:104210008D06809103011F928F938EED94E09F9302
:104220008F930E9426078CED94E00E948D0685EC0A
:1042300094E00E948D06809102011F928F9382EC80
:1042400094E09F938F930E94260780EC94E00E9455
:104250008D068DB79EB748960FB6F8949EBF0FBED9
:104260008DBF18C08C2F0E940C208093100212C0AA
:1042700061E003C061E006C06AE0809110020E9424
:10428000A81D08C0809110020E944B1E03C085E645
:1042900095E013C080911002882369F01F928F93DC
:1042A0008FE595E09F938F930E9426070F900F90C4
:1042B0000F900F9004C08CE595E00E948D0681E080
:1042C00006C01092110280E002C080E003CFCF91BF
:1042D000089580911D0208959FB7F89410921402DA
:1042E0009FBF90912C02943009F057C09091E90043
:1042F0009F703091EC00232F217030FD20E8922B2D
:1043000024E02093E9002091EB0020FF43C020919E
:10431000EE0027FF3FC020911202222321F02091BE
:10432000E80025FF37C01092120226E03091E80025
:1043300035FD15C030912C02343061F53091EB0021
:1043400035FD28C0215021F481E08093120222C063
:10435000EFE9FFE03197F1F700C00000E7CF80936D
:10436000F1008091E80085FD0AC08091E80080FF9F
:10437000FCCF8091E8008E778093E80006C08FB76D
:10438000F89421E0209314028FBF9F709093E9006E
:1043900080E008959F709093E9008FEF08950F9348
:1043A0001F93CF93DF9300D01F92CDB7DEB78C0160
:1043B0000E948124823011F0843019F593E09983B2
:1043C0001B830A839093E9008FEF9091E80081505E
:1043D00095FD06C095ED9A95F1F700008111F5CF96
:1043E0008091E80085FF0DC040E050E063E070E0A0
:1043F000CE0101960E949E248091E8008E778093E2
:10440000E8000F900F900F90DF91CF911F910F91C7
:104410000895CF93DF9300D01F92CDB7DEB72091E0
:104420002C02243031F522E02983805891099B83A6
:104430008A8383E08093E9008FEF9091E8008150B8
:1044400095FD06C095ED9A95F1F700008111F5CF25
:104450008091E80085FF0DC040E050E063E070E02F
:10446000CE0101960E949E248091E8008E77809371
:10447000E8000F900F900F90DF91CF910895CF93A8
:10448000DF93EC010E948124823011F08430F9F432
:1044900082E08093E9009FEF8091E800915085FDD4
:1044A00006C085ED8A95F1F700009111F5CF809156
:1044B000E80085FF0CC040E050E065E070E0CE0110
:1044C0000E949E248091E8008E778093E800DF911F
:1044D000CF910895CF93DF93EC010E948124823025
:1044E00011F0843039F581E08093E9009FEF8091ED
:1044F000E800915085FD06C085ED8A95F1F7000032
:104500009111F5CF8091E80085FF14C040E050E0A4
:1045100068E070E0CE010E949E249091E8009E77B2
:104520009093E80098E0FE01A5E1B2E001900D92C1
:104530009A95E1F7DF91CF91089587EB9AE00E9479
:104540008D0680912B02811109C00E9433260E94A2
:1045500090268091E20084608093E200089583EBCE
:104560009AE00E948D0610922B0208958FEA9AE03D
:104570000C948D068BEA9AE00C948D0687EA9AE0FB
:104580000E948D060C940F1A209113022F5F822F28
:1045900062E30E943929992319F0209313020895A8
:1045A0001092130280911402882371F180912C02E1
:1045B000843041F58091E9008F702091EC00922FBA
:1045C000917020FD90E8892B94E09093E900909100
:1045D000EB0090FF14C09091EE0097FF10C09091F7
:1045E000E80095FF03C01092F100F9CF9091E80028
:1045F00090FF05C09091E8009E779093E8008F703F
:104600008093E90010921402089542E061EC81E089
:104610000E94AD2542E061EC82E00E94AD2542E0BF
:1046200061EC83E00E94AD2542E261EC84E00C94F1
:10463000AD2580912E02833009F453C030F48130CF
:1046400071F0823009F48CC008958A3009F478C082
:104650008B3009F45EC0893009F09AC020C0809187
:104660002D02813A09F094C08091E800877F809301
:10467000E8008091310290913202892B21F468E0A8
:1046800085E192E003C060E080E090E070E00E948D
:10469000E9248091E8008B778093E8000895809169
:1046A0002D02813209F074C0809131029091320262
:1046B000892B09F06DC08091E800877F8093E80026
:1046C0008091E80082FD05C080912C028111F8CF15
:1046D0005FC08091F10080931D028091E8008B778C
:1046E00053C080912D02813A09F052C0809131026D
:1046F00090913202892B09F04BC08091E800877FAE
:104700008093E8008091E80080FFFCCF8091120147
:1047100036C080912D028132D9F58091310290917D
:104720003202892BA9F58091E800877F8093E80009
:104730000E94E22580912F02809312010C94DD12D9
:1047400080912D02813221F58091E800877F80934E
:10475000E8000E94E2258091300280931E020895B5
:1047600080912D02813AA1F48091E800877F8093A7
:10477000E8008091E80080FFFCCF80911E028093CA
:10478000F1008091E8008E778093E8000C94E22598
:10479000089584B7877F84BF0FB6F894A895809159
:1047A0006000886180936000109260000FBE80E816
:1047B00080936100109261000E94840D0E94332654
:1047C0000E9490268091E20084608093E2008CE653
:1047D00091E20E941A1978940E941E290E94880D65
:1047E00088E091E00E94F20C86E99AE00E948D0632
:1047F00080912C02853089F482E99AE00E948D062E
:104800000E94C71980912A02882391F30E94F71908
:10481000882371F30E948824EBCF0E94BC0DE8CF5F
:104820000C941224292F332723303105C9F064F466
:104830002130310581F02230310509F049C084E78B
:1048400090E025E03BE048C02132310521F12232E1
:10485000310571F13DC082E190E029E73BE03CC0C9
:1048600099278130910571F02CF4892B89F5E1E0CD
:10487000FBE00DC08230910541F0039749F5EBEB69
:10488000FAE005C0E5EDFAE002C0E1ECFAE084915F
:1048900090E09F0121C064307105D0F4660F771F4E
:1048A000FB01E35CFE4F2081318189E090E014C080
:1048B0006430710568F4FB01EE0FFF1FEB5CFE4FE7
:1048C00020813181FB01EF5CFE4F808190E004C0CC
:1048D00080E090E020E030E0FA0131832083089509
:1048E0000895CF93C82F0E947024C0931F02CF91C8
:1048F000089580912C02843011F081E0089582E0C7
:10490000089580911F02811102C00C9479240895AA
:1049100080E189BD82E189BD09B400FEFDCF8091AF
:10492000D8008F7D8093D8008091E00082608093D2
:10493000E0008091E00081FDFCCF0895CF92DF92EE
:10494000EF92FF920F931F93CF93DF93EC018B01B4
:104950006A010E940126811133C0C114D10439F0CB
:10496000F60180819181081B190BC80FD91FE12C1A
:10497000F12C0115110519F18091E80085FD16C093
:104980008091E8008E778093E800C114D10449F04B
:10499000F60180819181E80EF91EF182E08285E0C6
:1049A0000FC00E940126882321F30AC089918093B9
:1049B000F10001501109FFEFEF1AFF0ADACF80E092
:1049C000DF91CF911F910F91FF90EF90DF90CF90EB
:1049D000089520913302309134022617370748F0AA
:1049E0006115710539F42091E8002E772093E800D5
:1049F00001C0B90140E061157105A9F120912C02B7
:104A0000222309F443C0253009F442C02091E80074
:104A100023FD40C02091E80022FD32C02091E80033
:104A200020FFE9CF4091F3002091F20030E0342BD9
:104A3000FC01CF016115710559F02830310540F4B2
:104A400081918093F100615071092F5F3F4FF1CF49
:104A500041E02830310509F040E02091E8002E7750
:104A60002093E800C8CF4111C9CF0AC080912C0221
:104A7000882361F0853061F08091E80083FD0AC0F1
:104A80008091E80082FFF2CF80E0089582E00895EF
:104A900083E0089581E0089520913302309134023B
:104AA0002617370748F06115710539F42091E800A1
:104AB0002E772093E80001C0B901FC0120E06115C8
:104AC000710591F180912C02882309F440C0853052
:104AD00009F43FC08091E80083FD3DC08091E8006B
:104AE00082FD2FC08091E80080FFE9CF2091F30084
:104AF0008091F20090E0922B6115710559F0883099
:104B0000910540F424912093F10031966150710990
:104B10000196F2CF21E0089709F020E08091E800AB
:104B20008E778093E800CBCF2111CCCF0AC0809143
:104B30002C02882361F0853061F08091E80083FDCC
:104B40000AC08091E80082FFF2CF80E0089582E001
:104B5000089583E0089581E00895982F973058F5DF
:104B60009093E900981739F07091EC002091ED00D6
:104B70005091F00003C0242F762F50E021FF19C080
:104B80003091EB003E7F3093EB003091ED003D7FA4
:104B90003093ED003091EB0031603093EB00709377
:104BA000EC002093ED005093F0002091EE0027FFE1
:104BB00007C09F5FD3CF8F708093E90081E0089595
:104BC00080E0089580912D0287FF11C08091E80058
:104BD00082FD05C080912C028111F8CF11C0809117
:104BE000E8008B770BC080912C02882349F08091DC
:104BF000E80080FFF8CF8091E8008E778093E8008E
:104C000008952091E4003091E50095E64091EC0094
:104C1000842F817040FF22C08091E80080FD1CC07D
:104C200080912C02882391F0853091F08091EB00E7
:104C300085FD10C04091E4005091E50042175307F4
:104C400029F39A01915011F784E0089582E00895C4
:104C500083E0089581E0089580E008954091E800A0
:104C600042FFDECF08950E94A1260E94A926E0EE11
:104C7000F0E0808181608083E8EDF0E080818F77D3
:104C8000808319BCA7EDB0E08C918E7F8C938081DE
:104C90008F7E808310922B0208950F931F93CF93E2
:104CA000DF930E94A1260E94A926C8EDD0E088814A
:104CB0008F77888388818068888388818F7D8883C7
:104CC00019BC10922C021092280210922A02109203
:104CD000290200EE10E0F80180818B7F80838881BB
:104CE0008160888342E060E080E00E94AD25E1EED3
:104CF000F0E080818E7F8083E2EEF0E08081816051
:104D00008083808188608083F80180818E7F8083AA
:104D1000888180618883DF91CF911F910F910895E1
:104D2000E8EDF0E080818F7E8083E7EDF0E0808128
:104D30008160808384E082BF81E080932B020C94A9
:104D40004D26E8EDF0E080818E7F80831092E200B6
:104D500008951092DA001092E10008951F920F92C8
:104D60000FB60F9211242F933F934F935F936F933E
:104D70007F938F939F93AF93BF93EF93FF93809114
:104D8000E10082FF0BC08091E20082FF07C08091AA
:104D9000E1008B7F8093E1000E94C4228091DA00C1
:104DA00080FF1FC08091D80080FF1BC08091DA0077
:104DB0008E7F8093DA008091D90080FF0DC080E162
:104DC00089BD82E189BD09B400FEFDCF81E08093F9
:104DD0002C020E949D2205C019BC10922C020E9438
:104DE000AF228091E10080FF19C08091E20080FF36
:104DF00015C08091E2008E7F8093E2008091E200F6
:104E000080618093E2008091D80080628093D80016
:104E100019BC85E080932C020E94BA228091E100A7
:104E200084FF30C08091E20084FF2CC080E189BD06
:104E300082E189BD09B400FEFDCF8091D8008F7D4D
:104E40008093D8008091E1008F7E8093E100809173
:104E5000E2008F7E8093E2008091E2008160809387
:104E6000E20080912802882311F084E007C080913D
:104E7000E30087FD02C081E001C083E080932C0243
:104E80000E94BE228091E10083FF29C08091E20050
:104E900083FF25C08091E100877F8093E10082E05D
:104EA00080932C02109228028091E1008E7F8093E3
:104EB000E1008091E2008E7F8093E2008091E20029
:104EC00080618093E20042E060E080E00E94AD25D6
:104ED0008091F00088608093F0000E94B622FF91DC
:104EE000EF91BF91AF919F918F917F916F915F9162
:104EF0004F913F912F910F900FBE0F901F901895DB
:104F00001F920F920FB60F9211242F933F934F933E
:104F10005F936F937F938F939F93AF93BF93CF9341
:104F2000DF93EF93FF93C091E900CF708091EC0085
:104F3000D82FD17080FDD0E81092E9008091F00068
:104F4000877F8093F00078940E94C4271092E90034
:104F50008091F00088608093F000CD2BCF70C093DB
:104F6000E900FF91EF91DF91CF91BF91AF919F91B8
:104F70008F917F916F915F914F913F912F910F9002
:104F80000FBE0F901F9018951F93CF93DF93CDB74F
:104F9000DEB7AA970FB6F894DEBF0FBECDBFEDE225
:104FA000F2E088E08E0F9091F10091938E13FBCF89
:104FB0000E9419238091E80083FF28C180912D026F
:104FC00090912E02492F50E04A30510508F01EC141
:104FD000FA01E556FF4F0C945929803821F08238A8
:104FE00009F014C108C08091290290912A029923E6
:104FF00089F082600FC0809131028F70873008F095
:1050000005C18093E9008091EB0085FB882780F93A
:105010001092E9009091E800977F9093E8008093C8
:10502000F1001092F100D0C0282F2D7F09F0EEC0C2
:10503000882319F0823061F0E9C080912F0281301D
:1050400009F0E4C0933009F080E080932A022EC07A
:1050500080912F0281112AC0809131028F702FEF31
:10506000280F263008F0D2C08093E9002091EB0091
:1050700020FF1CC0933021F48091EB00806214C0AB
:105080009091EB0090619093EB0021E030E0A9015A
:1050900002C0440F551F8A95E2F74093EA00109230
:1050A000EA008091EB0088608093EB001092E900A9
:1050B0008091E800877F8093E8000E94E225A6C0E7
:1050C0008111A4C010912F021F778091E300807896
:1050D000812B8093E3008091E800877F8093E80034
:1050E0000E94E2258091E80080FFFCCF8091E300E0
:1050F00080688093E300111102C082E001C083E068
:1051000080932C0283C08058823008F07FC0809149
:105110002F02909130028C3D53E0950779F583E0A2
:105120008A838AE289834FB7F894DE01139620E0E0
:105130003EE051E2E32FF0E050935700E49120FF6E
:1051400003C0E295EF703F5FEF708E2F90E0EA3082
:1051500010F0C79601C0C0968D939D932F5F2431A8
:1051600049F74FBF8091E800877F8093E8006AE2AB
:1051700070E0CE0101960E94E92415C060913102D1
:1051800070913202AE014F5F5F4F0E941024BC014C
:10519000892BE1F19091E800977F9093E800898155
:1051A0009A810E944C258091E8008B778093E800DB
:1051B0002DC0803859F58091E800877F8093E80002
:1051C000809128028093F1008091E8008E7773CF60
:1051D00081111CC090912F029230C0F48091E800A0
:1051E000877F8093E800909328020E94E2258091B7
:1051F0002802811106C08091E30087FD02C081E092
:1052000001C084E080932C020E9405238091E80075
:1052100083FF0AC08091E800877F8093E800809137
:10522000EB0080628093EB00AA960FB6F894DEBF85
:105230000FBECDBFDF91CF911F910895CF93809185
:105240002C028823A1F0C091E900CF709091EC006E
:10525000892F817090FD80E8C82B1092E900809121
:10526000E80083FD0E94C427CF70C093E900CF916E
:105270000895991B79E004C0991F961708F0961BB2
:10528000881F7A95C9F78095089597FB072E16F425
:10529000009407D077FD09D00E945F2907FC05D054
:1052A0003EF4909581959F4F0895709561957F4F3D
:1052B0000895EE0FFF1F0590F491E02D0994AA1BAD
:1052C000BB1B51E107C0AA1FBB1FA617B70710F0F1
:1052D000A61BB70B881F991F5A95A9F78095909523
:1052E000BC01CD010895F999FECF92BD81BDF89A18
:1052F000992780B50895A8E1B0E042E050E00C9411
:105300009B29262FF999FECF92BD81BDF89A01976E
:1053100000B4021639F01FBA20BD0FB6F894FA9AFD
:10532000F99A0FBE08950196272F0E9482290C94A6
:105330008129DC01CB01FC01F999FECF06C0F2BD49
:10534000E1BDF89A319600B40D9241505040B8F743
:065350000895F894FFCF60
:10535600FA012808140A321E69216A223F2209220C
:10536600CF21013733323130679192663635349426
:105376009697F5F6F4F1900102030405060708096D
:1053860000404D3622300CE30BAD0B8B0B170B3068
:065396000B490B620B0045
:00000001FF
